:101CA800506C6561736520576169742E2E2E004152
:101CB800542B434950534E54504346473D312C38DA
:101CC8002C226E7470312E616C6979756E2E636F7B
:101CD8006D220D0A003A0041542B434950534E548B
:091CE8005054494D453F0D0A001E
:100C2800121479121E18121E4B7BFF7A1C79A875B4
:100C38004502E4FDFF1211D57F887E13121E331280
:100C4800000E121DFC1200347BFF7A1C79B7121EAD
:100C580088120003E4FBFDFF121C0F7B01E4FD7FFB
:100C680011121C0F7BFF7A1C79DD754502E4FD7FAC
:100C7800211211D57B07E4FD7F52121C0F7B027DE8
:100C880002E4FF121C0F7B037D027F11121C0F7BF5
:100C9800FF7A1C79DD7545027D027F211211D57B13
:100CA800047D047F11121C0F7B057D047F31121C0B
:100CB8000F7B067D047F51121C0F7BFF7A1C79DDA8
:100CC8007545027D067F211211D57BFF7A1C79DDDF
:100CD8007545027D067F391211D575AF017BFF7A04
:100CE8001C79DF121E88D2A9121D5BE54EC4540F71
:100CF800F563E54E540FF564E54FC4540FF565E50B
:100D08004F540FF566AB65AD64AF631213C8D3904B
:100D180000EBE094D09000EAE09407405CE4F0A394
:100D2800F0FB7A00792C12095EEF704DFB7A00799E
:100D38002C1215127B007A00791C121E75851C1264
:100D4800851D13751425E4F5158521088522098567
:100D5800230A85240B85250CF50DFB7A007912757D
:100D680045027D027F291211D57B007A007908752A
:100D78004502E4FD7F291211D5D39000EDE09430AF
:100D88009000ECE09475400DE4F0A3F0AB65AD6421
:100D9800AF631213C81217DD9000D9E54BF0A3E535
:100DA8004CF0E4A3F09000D6E54DF0A3E54EF0E456
:100DB800A3F09000DFE54FF0A3E550F0E4A3F0A323
:100DC800E551F0A3E552F0E4A3F0A3E553F0A3E561
:100DD80054F0E4A3F09000DCE555F0A3E556F0E408
:100DE800A3F07B017A0079D97545027D04FF1211C1
:100DF800D57B017A0079D67545027D047F211211D1
:100E0800D57B017A0079DF7545027D047F41121197
:100E1800D57B017A0079E27545027D067F111211B2
:100E2800D57B017A0079E57545027D067F29121187
:100E3800D57B017A0079DC7545027D067F41121168
:100E4800D5121D5BE54FC454F0FFE54FC4540F4F56
:100E5800F580E54EC454F0FFE54EC4540F4FF5A09D
:100E6800121D5BE54EC4540FF563E54E540FF5644F
:100E7800E54FC4540FF565E5506003020D16121BCB
:100E8800BC9000EEE014601914602214602B240357
:100E98006003020D16AB65AD64AF63121B0D020D46
:100EA80016AB65AD64AF631219E1020D16AB65AD03
:100EB80064AF631215A5020D16AB65AD64AF63127E
:050EC80013C8020D1625
:101AB5004A616E000046656200004D61720000419A
:101AC500707200004D617900004A756E00004A751C
:101AD5006C0000417567000053657000004F63742A
:101AE50000004E6F76000044656300004D6F6E0088
:101AF5005475650057656400546875004672690041
:081B05005361740053756E007A
:101CF1004500CD00000000004400D20000000001BA
:021D01006A0076
:101E4B00759A50438E0475D7D075D6FF438E10E428
:051E5B00F5AFD2AF223B
:101E1800759850438E40538EFE53890F758BD0753D
:0B1E28008DFFC2ABD28EC2ACD2AF2245
:0C1F4B00C2AC8F993099FDC299D2AC2233
:101ED300E4F5AF8F9BE59A30E1FB539AFD75AF01B3
:011EE30022DC
:101E7500121085FF600C121F4B740129F9E43AFA20
:031E850080EE22CA
:101E8800121085FF600C121ED3740129F9E43AFA86
:031E980080EE22B7
:03004300020ECDDD
:100ECD00C0E0C0F0C083C08263A201C083C082C0F5
:100EDD00D075D000C000C001C002C003C004C00561
:040EED00C006C00774
:100EF100753300E59A20E003021060539AFEAF9B20
:100F0100EF643A600AE56AD39400500302106374F7
:100F1100B4256AF582E43400F583EFF0056A640ACA
:100F2100600AE56AC394195003021063756A007B75
:100F3100017A0079B4121E759000CBE024D0C4541C
:100F4100F0FFA3E024D04FF54B9000BDE024D0C4C6
:100F510054F0FFA3E024D04FF54D9000C0E024D021
:100F6100C454F0FFA3E024D04FF54E9000C3E02419
:100F7100D0C454F0FFA3E024D04FF54F9000C6E059
:100F810024D0C454F0FFA3E024D04FF5509000B515
:100F9100E09000D2F09000B6E09000D3F09000B75E
:100FA100E09000D4F09000B9E09000CDF09000BA4C
:100FB100E09000CEF09000BBE09000CFF07E007F8B
:100FC100197D007A0079B41211A9753300E53375E2
:100FD100F004A424F1F9741A35F0FA7BFF75370196
:100FE1007538007539D21218E9E94A4B6018E533B2
:100FF10004F53275F00A84C454F0FFE53275F00A45
:1010010084EF25F0F5510533E533C3940740BE75F0
:101011003100E53175F005A424B5F9741A35F0FAFB
:101021007BFF7537017538007539CD1218E9E94A2A
:101031004B6018E53104F53275F00A84C454F0FFB1
:10104100E53275F00A84EF25F0F54C0531E531C341
:10105100940C40BEE54B64706008121B658003531D
:021061009AFDF6
:10106300D007D006D005D004D003D002D001D000E1
:10107300D0D0D082D08363A201D082D083D0F0D0ED
:02108300E03259
:100046001060028C0000FE9292929292FE000000D6
:1000560004047E01407E42427E427E42427E400051
:100066000000FC242424FC252624FC24242404004B
:1000760040308F80844C55252525554C8080800046
:100086001060028C00FE929292929292FE00000004
:1000960004047E014448507F40407F50484440005D
:1000A6000000FC242424FC252624FC24242404000B
:1000B60040308F80844C55252525554C8080800006
:1000C600002018C744444444FC444444440400000B
:1000D6000404040704040404FF04040404040400E0
:1000E600000000FE2222222222222222FE000000FE
:1000F6008040300F02020202020242827F000000AC
:10010600000000FE82828282828282FE000000005F
:10011600000000FF40404040404040FF000000001B
:10012600060909E6F80C040202020202041E000097
:10013600000000071F3020404040404020100000D3
:100146000000000000000000002F00000000070073
:10015600070000147F147F1400242A7F2A120062ED
:100166006408132300364955225000000503000099
:1001760000001C224100000041221C000014083E21
:1001860008140008083E0808000000A060000008E7
:10019600080808080000606000000020100804023B
:1001A600003E5149453E0000427F400000426151F9
:1001B6004946002141454B31001814127F10002793
:1001C60045454539003C4A49493000017109050356
:1001D60000364949493600064949291E0000363687
:1001E60000000000563600000008142241000014EA
:1001F60014141414000041221408000201510906C7
:1002060000324959513E007C1211127C007F494947
:100216004936003E41414122007F4141221C007F78
:1002260049494941007F09090901003E4149497A86
:10023600007F0808087F0000417F41000020404100
:100246003F01007F08142241007F40404040007F6C
:10025600020C027F007F0408107F003E4141413EB0
:10026600007F09090906003E4151215E007F0919F8
:1002760029460046494949310001017F0101003FF5
:100286004040403F001F2040201F003F4038403F75
:1002960000631408146300070870080700615149D9
:1002A600454300007F41410000552A552A5500006C
:1002B60041417F00000402010204004040404040EA
:1002C600000001020400002054545478007F484482
:1002D600443800384444442000384444487F0038B9
:1002E6005454541800087E0901020018A4A4A47CE2
:1002F600007F080404780000447D400000408084AC
:100306007D00007F102844000000417F4000007CF3
:1003160004180478007C08040478003844444438FF
:1003260000FC242424180018242418FC007C08044B
:10033600040800485454542000043F444020003C24
:100346004040207C001C2040201C003C4030403CAB
:10035600004428102844001CA0A0A07C004464543B
:100366004C4414141414141400000000000000007F
:100376000000000000000000000000F8000000007F
:10038600000000333000000000100C06100C0600C0
:10039600000000000000000040C07840C078400027
:1003A600043F04043F040400007088FC0830000089
:1003B600001820FF211E0000F008F000E0180000E1
:1003C60000211C031E211E0000F00888700000009A
:1003D6001E2123241927211010160E0000000000EC
:1003E6000000000000000000000000E01804020009
:1003F600000000071820400000020418E00000007A
:100406000040201807000000404080F08040400077
:100416000202010F01020200000000F000000000CD
:100426000101011F010101000000000000000000A1
:1004360080B0700000000000000000000000000016
:10044600000101010101010100000000000000009F
:10045600003030000000000000000000806018043A
:10046600006018060100000000E010080810E00017
:10047600000F102020100F00001010F800000000E0
:100486000020203F20200000007008080888700027
:1004960000302824222130000030088888483000A7
:1004A6000018202020110E000000C02010F80000C7
:1004B60000070424243F240000F808888808080060
:1004C6000019212020110E0000E010888818000075
:1004D600000F112020110E0000380808C838080047
:1004E6000000003F000000000070880808887000C7
:1004F600001C222121221C0000E010080810E00048
:100506000000312222110F00000000C0C0000000D0
:1005160000000030300000000000008000000000F5
:1005260000008060000000000000804020100800ED
:1005360000010204081020004040404040404000B6
:100546000404040404040400000810204080000091
:100556000020100804020100007048080808F00096
:100566000000003036010000C030C828E810E00066
:100576000718272423140B000000C038E0000000F1
:10058600203C23020227382008F88888887000005B
:10059600203F202020110E00C0300808080838002F
:1005A600071820202010080008F808080810E000A6
:1005B600203F202020100F0008F88888E808100047
:1005C600203F20202320180008F88888E80810001B
:1005D600203F200003000000C03008080838000053
:1005E60007182020221E020008F808000008F80854
:1005F600203F210101213F20000808F808080000DB
:100606000020203F2020000000000808F80808000D
:10061600C08080807F00000008F888C02818080085
:10062600203F20012638200008F8080000000000BE
:10063600203F20202020300008F8F800F8F80800B5
:10064600203F003F003F200008F830C00008F808AF
:10065600203F200007183F00E01008080810E000BF
:100666000F10202020100F0008F808080808F000D6
:10067600203F210101010000E01008080810E000F9
:100686000F18242438504F0008F88888888870008E
:10069600203F2000030C302000708808080838002E
:1006A6000038202121221C00180808F80808180024
:1006B6000000203F2000000008F808000008F808A5
:1006C600001F202020201F000878880000C8380856
:1006D600000007380E010000F80800F80008F800CE
:1006E600033C0700073C0300081868808068180868
:1006F60020302C03032C30200838C800C8380800E6
:100706000000203F2000000010080808C838080034
:100716002038262120201800000000FE02020200D8
:100726000000007F40404000000C30C00000000088
:10073600000000010638C00000020202FE000000B0
:10074600004040407F000000000004020202040056
:100756000000000000000000000000000000000093
:10076600808080808080808000020204000000007B
:100776000000000000000000000080808080000073
:100786000019242222223F2008F800808000000061
:10079600003F112020110E00000000808080000024
:1007A600000E112020201100000000808088F80033
:1007B600000E112020103F20000080808080000065
:1007C600001F222222221300008080F088888818C9
:1007D6000020203F202000000000808080808000D4
:1007E600006B94949493600008F800808080000069
:1007F600203F210000203F20008098980000000044
:100806000020203F20200000000000809898000073
:1008160000C08080807F000008F800008080800093
:10082600203F24022D302000000808F800000000B8
:100836000020203F20200000808080808080800073
:10084600203F20003F20003F808000808080000005
:10085600203F210000203F20000080808080000093
:10086600001F202020201F008080008080000000C4
:1008760080FFA12020110E000000008080808000F3
:10088600000E112020A0FF808080800080808000E4
:1008960020203F2120000100000080808080800011
:1008A6000033242424241900008080E08080000086
:1008B6000000001F202000008080000000808000D3
:1008C600001F202020103F20808080000080808034
:1008D60000010E30080601008080008000808080C4
:1008E6000F300C030C300F000080800080808000E9
:1008F6000020312E0E312000808080000080808014
:1009060080818E70180601000080808080808000C3
:100916000021302C2221300000000000807C0202E1
:1009260000000000003F404000000000FF00000003
:1009360000000000FF0000000002027C80000000B2
:100946000040403F000000000006010102020404CE
:08095600000000000000000099
:101DBC008F4A121F577F78121F2F121F60E4FF12D9
:101DCC001F2F121F60AF4A121F2F121F60021F69B4
:0F1D8D0074462544F58274003543F583E493FFD3
:101D9C008F49121F577F78121F2F121F607F40121E
:101DAC001F2F121F60AF49121F2F121F60021F69D5
:021D29008F40E9
:101D2B00E4F541E54124B0FF121DBCE4FF121DBCDC
:101D3B007F10121DBCE4F542AF40121D9C0542E51D
:0F1D4B0042C3948040F20541E541C3940840D45F
:011D5A002266
:05000300E4FF021D29CD
:101479007FC87E00121E33121E607FAE121DBC7F14
:1014890020121DBC7F02121DBC7FB0121DBC7FC87B
:10149900121DBCE4FF121DBC7F10121DBC7F40123F
:1014A9001DBC7F81121DBC7FFF121DBC7FA1121DB7
:1014B900BC7FA6121DBC7FA8121DBC7F3F121DBC9C
:1014C9007FA4121DBC7FD3121DBCE4FF121DBC7F7B
:1014D900D5121DBC7FF0121DBC7FD9121DBC7F2205
:1014E900121DBC7FDA121DBC7F12121DBC7FDB12DC
:1014F9001DBC7F20121DBC7F8D121DBC7F14121DC7
:09150900BC1200037FAF021DBCFF
:101DDC008F49ED24B0FF121DBCE54954F0C4540FDB
:101DEC004410FF121DBCE549540F4401FF021DBCF9
:0F1EE4007F8D121DBC7F14121DBC7FAF021DBC71
:0F1EF3007F8D121DBC7F10121DBC7FAE021DBC67
:0A11D5008F408D418B428A4389440C
:1011DF00E4F546F547F548E54524FE6063046003F2
:1011EF000212DBAB42AA43A94485488275830012E1
:1011FF00109E70030212DB24E0F546E540D3947E87
:10120F004005E4F5400541AD41AF40121DDCE4F56A
:10121F004775F006E546A42446F582E5F03401F55E
:10122F0083E5822547F582E43583121D970547E54F
:10123F0047C3940640DB74062540F540054880A35C
:10124F00AB42AA43A94485488275830012109E6061
:10125F007B24E0F546E540D394784005E4F540055E
:10126F0041AD41AF40121DDCE4F54775F010E54686
:10127F00A42547F582E435F0F583E582246EF582E7
:10128F00E5833403121D970547E547C3940840DBF8
:10129F00E54104FDAF40121DDCE4F54775F010E5A4
:1012AF0046A42547F582E435F0F583E5822476F5EB
:1012BF0082E5833403121D970547E547C394084021
:0C12CF00DB74082540F540054802124F72
:0112DB0022F0
:041A52008F588B5AC4
:101A5600E4F55FF560E55B5407700BE55B13131364
:101A6600541FF562800AE55B131313541F04F562D5
:101A76008D62E562C3955B5035AD62AF58121DDCD1
:101A8600855861E561C3955A5020AB5CAA5DA95E95
:101A96000560E560AE5F7002055F14F5828E831205
:0E1AA600109EFF121D9C056180D9056280C450
:011AB400220F
:041C0F008F408D4134
:101C1300E4F542EB75F020A485F043F544AF4012A0
:101C23001DDCE4F542121D8D0544E54470020543B5
:101C33000542E542C3941040ECE54104FDAF401278
:101C43001DDCE4F542121D8D0544E5447002054395
:091C53000542E542C3941040EC87
:011C5C002265
:101E600075BA8090FE1174FFF090FE8074E0F090DF
:051E7000FE82E4F022F7
:0F1F020090FE82E030E6F990FE82E054BFF022BC
:091F570090FE817401F0021F02EA
:0E1F2F0090FE86EFF090FE817402F0021F0219
:091F600090FE817403F0021F02DF
:0F1F110090FE817404F0121F0290FE87E0FF2201
:0E1F3D0090FE82E4F090FE817405F0021F0217
:0F1F200090FE827401F090FE817405F0021F02A2
:091F690090FE817406F0021F02D3
:041E9B00EF4E600E98
:0C1E9F0000754305D543FDEF1F70F11ED8
:031EAB0080EE22A4
:041E3300EF4E6013FB
:101E370075451D7546B7D546FDD545FAEF1F70ECBC
:011E47001E7C
:031E480080E9220C
:031D030001690073
:101EAE00E4FEEEC39F500B7D1D7CB7DCFEDDFC0E09
:021EBE0080F0B2
:011EC00022FF
:06095E008B408A41894232
:10096400E4F543F544C2977F19121EAED297E4F51D
:10097400E9F5F9D2DEF5697F07121EAEC2DEE4F5B1
:1009840043E54325E02400F582E43400F583C08385
:10099400C082E0FEA3E0FF7C007D16121154D082D9
:1009A400D083EEF0A3EFF00543E543B45AD3E4F566
:1009B40043E54325E02400F582E43400F583E0FEBA
:1009C400A3E0D3944EEE94004021E54325E02402B5
:1009D400F582E43400F583E0FEA3E0D3944EEE9474
:1009E400004008E5432402F54480070543E543B489
:1009F4005ABFE543D3945A40037F0122854443E41C
:100A0400F544AB40AA41A942121120AB40AA41A926
:100A140042900001121132900002E412113290004F
:100A240003E4121132900004E4121132E543C3943A
:100A34005A4003020BE8E544C394085042AB40AA71
:100A440041A94212108525E0121120E54325E02436
:100A540002F582E43400F583E0FEA3E0FFE54325DC
:100A6400E02400F582E43400F583E0FCA3E0C39FB6
:100A7400EC9E500BAB40AA41A94274011210CBE585
:100A840044D394074050E5449410504AAB40E542A7
:100A94002401F9E43541FA12108525E0121120E50C
:100AA4004325E02402F582E43400F583E0FEA3E06C
:100AB400FFE54325E02400F582E43400F583E0FCFF
:100AC400A3E0C39FEC9E500EAB40AA41A942900004
:100AD4000174011210EDE544D3940F4050E54494A1
:100AE40018504AAB40E5422402F9E43541FA1210A9
:100AF4008525E0121120E54325E02402F582E43443
:100B040000F583E0FEA3E0FFE54325E02400F58241
:100B1400E43400F583E0FCA3E0C39FEC9E500EABED
:100B240040AA41A94290000274011210EDE544D399
:100B340094174050E5449420504AAB40E5422403C6
:100B4400F9E43541FA12108525E0121120E5432518
:100B5400E02402F582E43400F583E0FEA3E0FFE53F
:100B64004325E02400F582E43400F583E0FCA3E0AF
:100B7400C39FEC9E500EAB40AA41A942900003745F
:100B8400011210EDE544D3941F4050E544942850DD
:100B94004AAB40E5422404F9E43541FA12108525B4
:100BA400E0121120E54325E02402F582E43400F547
:100BB40083E0FEA3E0FFE54325E02400F582E4346E
:100BC40000F583E0FCA3E0C39FEC9E500EAB40AA6B
:100BD40041A94290000474011210ED054405430537
:100BE40043020A30AB40AA41A94290000112109E70
:100BF400FF1210852FFFE433FE90000212109E7C3A
:100C0400002FFFEC3EFE90000312109E2FFFEC3EDF
:100C1400FE90000412109EB50707ECB506037F0092
:030C2400227F022A
:010C270022AA
:10000E00E4C2DFC2DEC2DAC2D9C2D875D90875DA47
:10001E0071F5E9F5F9F5EAF5FAC2DE7FB490000064
:05002E00E4F0A3DFFC7B
:0100330022AA
:101512008B408A418942121085FF75F00A8424307B
:10152200F51CEF75F00A84E5F02430F51D751E2ECA
:1015320090000112109E75F00A84E5F02430F51F28
:1015420075202590000212109EFF75F00A84243047
:10155200F522EF75F00A84E5F02430F52375242E88
:1015620090000312109E30E714E92403F9E43AFADA
:10157200121085547F12112075212D800375212BA5
:10158200AB40AA41A94290000312109E75F00A8452
:10159200E5F02430F52575262075270D75280AE417
:0315A200F5292206
:03003B00021C5D47
:101C5D00C0E0C083C08263A201C083C082C0D075C2
:101C6D00D000C00775E90075F90085FA6785EA6847
:101C7D00AF690569EF25E02400F582E43400F583B2
:101C8D00E567F0A3E568F0C2D8D007D0D0D082D0F8
:0B1C9D008363A201D082D083D0E0322C
:0F1D06000D4B21111401274006000000000000C2
:05003400C296C29322F8
:0618670025F0FDEC3EFC43
:06186D008F348C358D362E
:10187300D296E4F53774017E00A837088005C33398
:10188300CE33CED8F9FFEF553424FF9292D2937F13
:10189300017E00121E9BC2937F017E00121E9B05D8
:1018A30037E537C3940840CDE4F53774017E00A8CB
:1018B30037088005C333CE33CED8F9FFE5355EFE56
:1018C300E5365F4E24FF9292D2937F017E00121E73
:1018D3009BC2937F017E00121E9B0537E537C3949D
:0518E3000840C8C29698
:0118E80022DD
:02196B008F40AB
:10196D00E4F542434001D296F54174017E00A84151
:10197D00088005C333CE33CED8F9FFEF554024FF91
:10198D009292C2937F017E00121E9BD2937F017EA5
:10199D0000121E9B0541E541C3940840CDE4F5417D
:1019AD00D2937F017E00121E9BC2937F017E001297
:1019BD001E9B30920FAF417401A807088002C333FC
:1019CD00D8FC42420541E541C3940840D3C296C2BA
:0319DD0092AF4284
:0119E00022E4
:1012DC00E4FDFC7F8E12186DE54B75F00A8475F0F9
:1012EC0010A4FFAEF0E54B75F00A847C00EF7F8C08
:1012FC00121867E54C75F00A8475F010A4FFAEF077
:10130C00E54C75F00A847C00EF7F88121867E54D78
:10131C0075F00A8475F010A4FFAEF0E54D75F00A77
:10132C00847C00EF25F0FDEC3EFC7F8612186DE509
:10133C004E75F00A8475F010A4FFAEF0E54E75F012
:10134C000A847C00EF25F0FDEC3EFC7F8412186DC6
:10135C00E54F75F00A8475F010A4FFAEF0E54F75FB
:10136C00F00A847C00EF25F0FDEC3EFC7F82121825
:10137C006DE55075F00A8475F010A4FFAEF0E550E1
:10138C0075F00A847C00EF25F0FDEC3EFC7F8012AA
:10139C00186DE55175F00A8475F010A4FFAEF0E5F8
:1013AC005175F00A847C00EF25F0FDEC3EFC7F8A41
:0C13BC0012186D7D807C007F8E02186D81
:101B6500E4FDFC7F8E12186DE54BFD7C007F8C1229
:101B7500186DE54CFD7C007F8812186DE54DFD7CE8
:101B8500007F8612186DE54EFD7C007F8412186D6E
:101B9500E54FFD7C007F8212186DE550FD7C007FCE
:101BA5008012186DE551FD7C007F8A12186D7D80CD
:071BB5007C007F8E02186D19
:101638007F8C12196BEFC4540F75F00AA4FEEF5497
:101648000F2EF54B7F8812196BEFC4540F75F00AF3
:10165800A4FEEF540F2EF54C7F8612196BEFC4547D
:101668000F75F00AA4FEEF540F2EF54D7F84121962
:101678006BEFC4540F75F00AA4FEEF540F2EF54E0D
:101688007F8212196BEFC4540F75F00AA4FEEF5451
:101698000F2EF54F7F8012196BEFC4540F75F00AA7
:1016A800A4FEEF540F2EF5507F8A12196BEFC45425
:0C16B8000F75F00AA4FEEF540F2EF55140
:0116C4002203
:101D5B007F8C12196B8F4B7F8812196B8F4C7F8680
:101D6B0012196B8F4D7F8412196B8F4E7F82121954
:101D7B006B8F4F7F8012196B8F507F8A12196B8F6D
:011D8B005106
:011D8C002234
:1017DD007F8C12196BEF54F0FEC4540F2430F54B6F
:1017ED00EF540F2430F54C7F8812196BEF54F0FE37
:1017FD00C4540F2430F54DEF540F2430F54E7F8631
:10180D0012196BEF54F0FEC4540F2430F54FEF5402
:10181D000F2430F5507F8412196BEF54F0FEC45431
:10182D000F2430F551EF540F2430F5527F821219E9
:10183D006BEF54F0FEC4540F2430F553EF540F24C6
:10184D0030F5547F8012196BEF54F0C4540F2430CF
:09185D00F555EF540F2430F55647
:01186600225F
:101EC10041542B434950534E545054494D453F0DB5
:021ED1000A0005
:0F1D15004200E800004200EA00004200EC00003B
:101DFC00438E805389F0758A9A758CA9C28DD28CCA
:0C1E0C00D2BF75B78075B501E4F5B622B1
:03000B000216C515
:1016C500C0E0C0F0C083C08263A201C083C082C0F5
:1016D500D075D000C000C001C002C003C004C00561
:1016E500C006C0079000E9E004F070069000E8E04D
:1016F50004F09000EBE004F070069000EAE004F0DE
:101705009000EDE004F070069000ECE004F0D3905A
:1017150000E9E094209000E8E0944E400DE4F0A349
:10172500F07BFF7A1E79C1121E88D007D006D0053E
:10173500D004D003D002D001D000D0D0D082D08345
:0C17450063A201D082D083D0F0D0E0324B
:041D24004100EE008C
:0613C8008F408D418B42B5
:1013CE00E4F543F544F544E544C454F04544F5A032
:1013DE00F5807F197E00121E330544E544C3940A3E
:1013EE0040E5E4F544E544C454F0FF4540F5A0E57E
:1013FE00444FF5807F197E00121E330544E544C329
:10140E00940A40E1E4F544E541C454F04540F5A0AA
:10141E00E544C454F04544F5807F197E00121E3316
:10142E000544E544C3940A40DEE4F544E541C45462
:10143E00F04540F5A0E544C454F04542F5807F19CF
:10144E007E00121E330544E544C3940A40DEE54F88
:10145E00C454F0FFE54FC4540F4FF580E54EC4540D
:0A146E00F0FFE54EC4540F4FF5A047
:011478002251
:0615A5008F408D418B42D6
:1015AB00E4F543F544F544E544C454F0FF4540F5F8
:1015BB00A0E5444FF5807F287E00121E330544E5DD
:1015CB0044C3940A40E1E4F544E541C454F045407A
:1015DB00F5A0E544C454F04544F5807F1E7E00120F
:1015EB001E330544E544C3940A40DEE4F544E5416B
:1015FB00C454F04540F5A0E544C454F04542F58091
:10160B007F1E7E00121E330544E544C3940A40DE60
:10161B00E54FC454F0FFE54FC4540F4FF580E54E32
:0C162B00C454F0FFE54EC4540F4FF5A06E
:011637002290
:0619E1008F408D418B4296
:1019E700E4F543F544F544E541C454F04540F5A01A
:1019F700E544C454F04544F5807F327E00121E331F
:101A07000544E544C3940A40DEE4F544E541C45483
:101A1700F04540F5A0E544C454F04542F5807F32D7
:101A27007E00121E330544E544C3940A40DEE54FA9
:101A3700C454F0FFE54FC4540F4FF580E54EC4542E
:0A1A4700F0FFE54EC4540F4FF5A068
:011A51002272
:061B0D008F408D418B4268
:101B1300E4F543F544F543E4F544E541C454F045A5
:101B230040F5A0E544C454F04542F5807F327E0081
:101B3300121E330544E544C3940A40DE0543E543DE
:101B4300C3940240D2E54FC454F0FFE54FC4540F91
:101B53004FF580E54EC454F0FFE54EC4540F4FF5E6
:011B6300A0E1
:011B6400225E
:101BBC00E55070049000EEF0E550700BE54F540FBB
:101BCC0070059000EE04F0E5507013E54F540F7063
:101BDC000DE54FC4540F70069000EE7402F0E55002
:101BEC007020E54F540F701AE54FC4540F7013E575
:101BFC004E540F700DE54EC4540F70069000EE74E9
:031C0C0003F022C0
:0300000002175193
:0C175100787FE4F6D8FD75816A021798D5
:10108500BB010689828A83E0225002E722BBFE0269
:09109500E32289828A83E493229C
:10109E00BB010CE58229F582E5833AF583E0225007
:1010AE0006E92582F8E622BBFE06E92582F8E22251
:0D10BE00E58229F582E5833AF583E493226B
:1010CB00BB010989828A83F8E028F022500327F7B5
:1010DB0022BBFE05F8E328F3228A838982F8E49386
:0210EB002822B9
:1010ED00BB010FF8E58229F582E5833AF583E02807
:1010FD00F0225009C58229F8E58226F622BBFE09A9
:10110D00C58229F8E22582F222F8EA2583F583E9E2
:03111D00932822F2
:10112000BB010689828A83F0225002F722BBFE01AE
:02113000F322A8
:10113200F8BB010DE58229F582E5833AF583E8F0F3
:10114200225006E92582C8F622BBFE05E92582C89F
:02115200F22287
:10115400BC000BBE0029EF8DF084FFADF022E4CC7F
:10116400F875F008EF2FFFEE33FEEC33FCEE9DEC48
:10117400984005FCEE9DFE0FD5F0E9E4CEFD22ED8E
:10118400F8F5F0EE8420D21CFEADF075F008EF2FD8
:10119400FFED33FD4007985006D5F0F222C398FDC9
:0511A4000FD5F0EA2266
:1018E9008B348A358936AB37AA38A9391210856005
:1018F90063AB34AA35A936121085605F85373A85FE
:10190900383B85393C8B3D8A3E893FAB3AAA3BA996
:101919003C121085FF6023AB3DAA3EA93F121085FA
:101929006F701704253CF53CE4353BF53B74012504
:101939003FF53FE4353EF53E80D1AB3AAA3BA93CA1
:101949001210857002800D74012536F536E435359F
:10195900F535809DAB34AA35A936227B007A00790A
:0219690000225A
:1011A900EF4E6012EF60010EEDBB010B89828A835D
:1011B900F0A3DFFCDEFA2289F05007F709DFFCA96A
:0C11C900F022BBFEFCF309DFFCA9F022C1
:10175D00020C28E493A3F8E493A34003F68001F26E
:10176D0008DFF48029E493A3F85407240CC8C3338D
:10177D00C4540F4420C8834004F456800146F6DF5C
:10178D00E4800B0102040810204080901CF1E47EDF
:10179D00019360BCA3FF543F30E509541FFEE49351
:1017AD00A360010ECF54C025E060A840B8E493A318
:1017BD00FAE493A3F8E493A3C8C582C8CAC583CA43
:1017CD00F0A3C8C582C8CAC583CADFE9DEE780BEFB
:011D280000BA
:00000001FF
